:020000040800F2
:10000000B804002001010008D30F0008D10E000839
:10001000D10F000899010008D71200080000000065
:10002000000000000000000000000000D70F0008E2
:100030009B01000800000000D50F0008D90F000840
:100040001B0100081B0100081B0100081B01000820
:100050001B0100081B0100081B0100081B01000810
:100060001B0100081B0100081B0100081B01000800
:100070001B0100081B0100081B0100081B010008F0
:100080001B0100081B0100081B0100081B010008E0
:100090001B0100081B0100081B0100081B010008D0
:1000A0001B010008351000081B0100081B01000897
:1000B0001B0100081B0100081B0100081B010008B0
:1000C0001B0100081B0100081B0100081B010008A0
:1000D0001B0100081B0100081B0100081B01000890
:1000E0001B0100081B0100081B010008DFF80CD0F1
:1000F00000F040F800480047A5140008B8040020AC
:100100000648804706480047FEE7FEE7FEE7FEE7B1
:10011000FEE7FEE7FEE7FEE7FEE7FEE73310000836
:10012000ED000008D2B201E000F8012B491EFBD21D
:1001300070470022F6E710B513460A4604461946F2
:10014000FFF7F0FF204610BD30B50B4601460020FA
:100150002022012409E021FA02F59D4205D303FA89
:1001600002F5491B04FA02F52844151EA2F101020A
:10017000F1DC30BD064C074D06E0E06840F00103BD
:1001800094E8070098471034AC42F6D3FFF7B2FF6B
:10019000E415000804160008FEE7704770B5044631
:1001A00000F008F90546601C02D0044800780444B9
:1001B00000F000F9401BA042FAD370BD10000020EF
:1001C0002DE9F84FDFF8B8910024A9F1040B23467C
:1001D0000F2709F1040AABF1040EC9E00125A5407F
:1001E0002A40AA427DD1674ED1F804C0ACEB060884
:1001F000B44532D014DCBCF1030F3AD009DCBCF1B9
:10020000000F2AD0BCF1010F1CD0BCF1020F31D17C
:100210001DE0BCF1110F17D0BCF1120F2AD119E06B
:10022000B8F5881F19D006DCB8F5803F15D0B8F5B1
:10023000801F1FD111E0B8F5001F0ED0B8F5041FC4
:1002400018D10AE0CB6815E0CB681B1D12E0CB6823
:1002500008330FE0CB680C330CE08B682BB1012B1B
:100260004FF0080303D0456104E0042302E0056178
:1002700000E00023FF2A01D8064601E000F1040651
:100280004FEA840501D9A5F12005D6F8008007FAC8
:1002900005FC28EA0C0803FA05F548EA0508C6F843
:1002A00000804D68ED0062D5374DAE6946F001061D
:1002B000AE61AD6924F0030605F001050095334DEC
:1002C00006EB050CDCF80850A607360F07FA06F80F
:1002D00025EA0805DFF8B880404503D14FF0000853
:1002E00017E044E0DFF8AC80404502D14FF0010850
:1002F0000FE0DFF8A480404502D14FF0020808E08B
:10030000DFF89880404502D14FF0030801E04FF03C
:10031000040808FA06F848EA0508CCF808804D6891
:10032000D9F80060ED024D4601D5164300E0964332
:100330002E604D68DAF80060AD02554601D51643CF
:1003400000E096432E604D68DBF80060AD035D462B
:1003500001D5164300E096432E604D68DEF800603C
:10036000ED03754601D5164300E096432E60641CEC
:100370000D682A46E5407FF431AFBDE8F88F0000F4
:10038000080401400000111000100240000001406C
:1003900000080140000C0140001001400014014021
:1003A0008068084000D0012070470AB101617047A1
:1003B0000904FBE701488068704700001000002036
:1003C0000248816802781144816070471000002063
:1003D000074810B5016841F010010160032000F0EA
:1003E00075F80F2000F006F800F024F8002010BD8A
:1003F0000020024070B50D4D04464FF47A71287804
:10040000B1FBF0F00A490968B1FBF0F000F0DCFA4A
:1004100048B9102C07D200222146501E00F036F8B1
:1004200000206C6070BD012070BD00001000002035
:100430001C0000200C4808B5816941F00101816170
:10044000816901F001010091C16941F08051C161F0
:10045000C06900F0805000900448416821F0E061DC
:1004600041F00071416008BD0010024000000140F1
:10047000002809DB00F01F020121914040098000A3
:1004800000F1E020C0F8001170470000F0B40E4BFE
:100490001B680C46C3F30223C3F10705042D00D9E2
:1004A0000425191D072901D2002300E0DB1E0126C7
:1004B00006FA05F1491E214099409E40761E1640DD
:1004C0003143F0BC00F018BF0CED00E0064900F02D
:1004D000070208684FF6FF03184040EA0220034A6B
:1004E00010430860704700000CED00E00000FA05C2
:1004F0002DE9F0470F46050061D0434E306800F00B
:100500000700B84209D2306820F007003843306055
:10051000306800F00700B84251D128683B4C810791
:1005200012D5400703D5606840F4E0606060287829
:10053000000703D5606840F4605060606068A96897
:1005400020F0F000084360602878C00728D0686871
:10055000012810D02168022810D0890700292EDA3E
:10056000616821F0030101436160FFF723FF8046CA
:1005700041F288390DE021688903EFE78901EDE751
:10058000FFF718FFA0EB0801494502D90320BDE899
:10059000F0876068696800F00C00B0EB810FEFD164
:1005A000306800F00700B8420BD9306820F007002F
:1005B00038433060306800F00700B84201D00120B5
:1005C000E5E72878400705D56068E96820F4E06031
:1005D000084360602878000706D56068296920F420
:1005E000605040EAC100606000F038F86168084A75
:1005F000C1F30311515CC840064908600648006811
:10060000FFF7F8FE0020C2E7002002400010024081
:10061000CA1500081C0000201400002004480549E9
:1006200000684968044AC1F30221515CC840704720
:100630001C00002000100240DA150008044805499B
:1006400000684968044AC1F3C221515CC840704740
:100650001C00002000100240DA1500080E4A516804
:100660000E4801F00C03042B11D0082B0FD10C48BD
:10067000C1F38343C903C05C0AD55168084AC1F37A
:100680004041921E515C054A5043B0FBF1F0704767
:1006900004494843704700000010024000127A00ED
:1006A000BA15000800093D002DE9F84F040070D08C
:1006B0002078C04DC00749D06868C0F38100012888
:1006C00007D06868C0F38100022809D16868C003B8
:1006D00006D52868800339D560680028E7D035E062
:1006E0006068B0F5803F0BD010B1B0F5A02F11D0ED
:1006F000286820F480302860286820F4802002E0F8
:10070000286840F480302860606890B1FFF752FE9E
:1007100006460AE0286840F480202860F0E700BF21
:10072000FFF748FE801B642873D828688003F7D53C
:100730000CE0FFF73FFE064605E000BFFFF73AFE7C
:10074000801B6428F0D828688003F7D420789A4E5C
:1007500080074FF001094FF0000839D5686810F0A4
:100760000C0F07D06868C0F38100022809D16868BF
:10077000C00306D42868800714D52069012808D151
:1007800010E02069B0B1C6F80090FFF713FE0746ED
:1007900005E00AE1FFF70EFEC01B0228C4D8286856
:1007A0008007F7D52868616920F0F80040EAC100A9
:1007B00028600DE0C6F80080FFF7FCFD074604E066
:1007C000FFF7F8FDC01B022823D828688007F7D45C
:1007D000207800072CD57948A169D9B1C0F80090DC
:1007E000FFF7E8FD074604E0FFF7E4FDC01B022821
:1007F0000FD8686A8007F7D571484FF4FA5100683E
:10080000B0FBF1F0009000BF0098411E0091FAD2B9
:100810000EE080E0C0F80080FFF7CCFD074604E062
:10082000FFF7C8FDC01B022875D8686A8007F7D497
:100830002078400760D5E8690027C00008D4E8693F
:1008400040F08050E861E869012700F08050009096
:100850005C480168C90513D40168834641F480717E
:100860000160FFF7A7FD824606E000BFFFF7A2FD8B
:10087000A0EB0A0064284ED8DBF80000C005F5D5CF
:10088000E06801280AD008B1052813D0286A20F0B2
:1008900001002862286A20F0040002E0286A40F083
:1008A00001002862E06841F2883B98B1FFF782FDC1
:1008B00082460BE0286A40F004002862EEE700BFA1
:1008C000FFF778FDA0EB0A0159455AD8286A80073E
:1008D000F6D50CE0FFF76EFD824605E0FFF76AFDF6
:1008E000A0EB0A0159454CD8286A8007F6D41FB1FD
:1008F000E86920F08050E861E06988B36968C1F375
:100900008101022944D00228C6F8608004D0FFF794
:1009100051FD044638E034E0FFF74CFD074604E0A3
:10092000FFF748FDC01B02282BD828688001F7D4A8
:10093000206AB0F5803F05D16868A16820F40030D6
:1009400008436860D4E908010843696821F4741118
:1009500008436860C6F86090FFF72CFD044606E087
:1009600025E000BFFFF726FD001B022809D82868F4
:100970008001F7D51BE000BFFFF71CFD001B02281C
:1009800002D90320BDE8F88F28688001F4D40EE076
:100990000128F7D06868226A00F48031914204D1BE
:1009A000616A00F47010884201D00120EAE700205B
:1009B000E8E700000010024000004242800442428A
:1009C0001C0000200070004010B5401EB0F1807F78
:1009D00001D3012010BD4FF0E02460610F216017AA
:1009E00000F08AFC0020A06107202061002010BDDB
:1009F0007047704770B590F83C20012A26D001243A
:100A000080F83C40022280F83D2003685A689D68C7
:100A100022F070060A6832435A600D4B02689A420F
:100A200008D0B2F1804F05D00A4B9A4202D00A4B4F
:100A30009A4204D1496825F080031943916080F8F7
:100A40003D40002180F83C10084670BD022070BD7A
:100A5000002C0140000400400008004010B50400D4
:100A600003D094F83D0010B107E0012010BD002034
:100A700084F83C00204600F01FF8022084F83D0076
:100A8000211D206800F0FAFA012084F8460084F85D
:100A90003E0084F83F0084F8400084F8410084F868
:100AA000420084F8430084F8440084F8450084F848
:100AB0003D00002010BD000008B500680B498842C9
:100AC00012D10B48816941F4006181618069002283
:100AD00000F40060009011461920FFF7D7FCBDE834
:100AE00008401920FFF7C4BC08BD0000002C0140DD
:100AF0000010024090F83D10012901D001207047FC
:100B0000022180F83D1000680B49884208D0B0F1FE
:100B1000804F05D00949884202D00949884204D152
:100B2000816801F00701062903D0016841F0010145
:100B30000160002070470000002C014000040040CC
:100B40000008004070B5044690F83C0000250128DC
:100B500017D0012684F83C60022084F83D0020680C
:100B6000826822F0770222F47F428260086850286F
:100B700038D00DDC20284FD005DC90B3102811D1DF
:100B80004AE0022070BD302846D040280AD13BE020
:100B900060282FD070280DD0B0F5805F03D0B0F55D
:100BA000005F12D0012584F83D60002084F83C00ED
:100BB000284670BDCB68D1E90121206800F09AFA7F
:100BC0002068816841F0770109E0CB68D1E9012113
:100BD000206800F08FFA2068816841F480418160CC
:100BE000E1E719E0CA684968206800F095FA5021E9
:100BF000206806E0CA684968206800F09EFA602113
:100C0000206800F081FACEE7CA684968206800F0E1
:100C100083FA40212068F4E7226801461046F0E795
:100C200070472DE9F04104460068C66805694FF039
:100C30000007A90713D5B10711D5F91E01610120DD
:100C40002077206880698007204602D0FFF7E8FF00
:100C500004E000F07EF8204600F07CF82777680773
:100C600016D5700714D521686FF0040008610220C2
:100C700020772068806910F4407F204602D0FFF77B
:100C8000CFFF04E000F065F8204600F063F8277716
:100C9000280715D5300713D521686FF008000861C3
:100CA000042020772068C0698007204602D0FFF723
:100CB000B7FF04E000F04DF8204600F04BF827772E
:100CC000E80616D5F00614D521686FF0100008610B
:100CD000082020772068C06910F4407F204602D0A9
:100CE000FFF79EFF04E000F034F8204600F032F8F1
:100CF0002777E80708D0F00706D021686FF00100D9
:100D00000861204600F027F8280608D5300606D5E9
:100D100021686FF0800008612046FFF769FE6806D1
:100D200008D5700606D521686FF04000086120469E
:100D300000F012F8A8060AD5B00608D521686FF0B1
:100D4000200008612046BDE8F041FFF752BEBDE833
:100D5000F081704770477047704770B5040004D049
:100D600094F84100002510B106E0012070BD84F820
:100D70004050204600F024F8242084F841002068E8
:100D8000C16821F40051C160204600F00FFA2068CC
:100D9000016921F4904101612068416921F02A0133
:100DA00041612068C16841F40051C1606564202040
:100DB00084F8410084F842006563002070BD0000A3
:100DC00030B585B000240094019402940394006827
:100DD0001449884224D11448816941F480418161D9
:100DE000816901F480410491816941F004018161CC
:100DF00080690E4D00F0040004904FF400700090E4
:100E0000022001900320039069462846FFF7D8F995
:100E10002815CDE90004694628460294FFF7D0F969
:100E200005B030BD0038014000100240000801400C
:100E30002DE9F843044690F84100984616460D46C1
:100E4000202802D00220BDE8F88385B17EB10020C1
:100E50006064212084F84100FFF7ACFAA684814643
:100E6000E684A0682027B0F5805F02D003E001206F
:100E7000E9E7206910B12E4600250EE000260CE0BF
:100E80008021204600F0EEF9A8B9C6B116F8010B92
:100E900021684860E08C401EE084E08C4B464FF0B7
:100EA0000002CDF800800028EAD14FF04001204632
:100EB00000F0D8F940B184F841700320C3E735F859
:100EC000020BC0F30800E3E784F841700020BAE7A2
:100ED000FEE70000F0B585B000241C4800940194A2
:100EE00002940394816941F010018161816901F0EC
:100EF00010010491816941F020018161816901F053
:100F000020010491816941F0040181618069104FE1
:100F100000F004004FF400550490002229463846A2
:100F2000FFF743FA0095022601250396CDE9015407
:100F300069463846FFF744F9009669460548CDE909
:100F40000145FFF73DF905B0F0BD0000001002407B
:100F5000001001400008014030B587B000241B4D4F
:100F60000094019402940394049417480594286013
:100F70000920C5E9010441F61F40C5E903046C617D
:100F80002846AC61FFF76AFD08B172B6FEE74FF480
:100F90008050009069460D48FFF7D4FD08B172B645
:100FA000FEE7049404A909480594FFF723FD08B15E
:100FB00072B6FEE72868C16841F00101C1600348CC
:100FC000FFF798FD07B030BD002C01402400002041
:100FD000FEE7FEE770477047FFF7F2B930B58FB014
:100FE00028216846FFF7A5F814210AA8FFF7A1F801
:100FF0000121080400240491CDE90010CDE9080482
:101000000294022507956846FFF74EFB08B172B6B9
:10101000FEE70F200A90CDE90B540D9400210AA899
:101020000E94FFF765FA002801D072B6FEE70FB004
:1010300030BD70470F4830B4456800226D1C4560D4
:1010400084680121641C8460C3685B1CC360142D28
:1010500001D342600170B4F57A7F01D382604170A0
:10106000B3F5FA7F01D3C260817030BC0248FFF74C
:10107000D8BD00000000002024000020F0B5026868
:10108000194B1A4C1A4D4FF08047984205D0B84280
:1010900003D0A04201D0A84203D122F070064A68D2
:1010A0003243984205D0B84203D0A04201D0A842B2
:1010B00003D122F44074CA6822434C6922F08002B2
:1010C000224302608A68C2620A688262984201D141
:1010D00009690163012141610169C90703D00169FF
:1010E00021F001010161F0BD002C0140000400402D
:1010F0000008004010B5846842EA032224F47F44CB
:101100000A432243826010BD826822F070020A43C3
:1011100042F007018160704710B5036A046A24F049
:1011200001040462846924F0F00444EA021423F008
:101130000A020A438461026210BD10B5036A046AA0
:1011400024F010040462846923F0A00324F47044A2
:1011500044EA023243EA01118261016210BD016872
:101160000C3151E8002F22F4907241E80023002B4B
:10117000F5D10168143151E8002F22F0010241E855
:101180000023002BF5D1016B012909D101680C3135
:1011900051E8002F22F0100241E80023002BF5D186
:1011A000202180F8421000210163704770B5044689
:1011B00000680169E26821F440511143016121692D
:1011C000A0680843616908432168CA6841F20C635A
:1011D0009A430243CA6020684169A26921F44071C0
:1011E000114341611E492068884202D1FFF726FA67
:1011F00001E0FFF713FA00EBC00101EB0012606899
:1012000064218000B2FBF0F3B3FBF1F36FF018063A
:101210007343B2FBF0F5B2FBF0F605EB8305322326
:1012200003EB0515B5FBF1F5B6FBF1F605F0F0059E
:1012300005EB0615B2FBF0F6B2FBF0F0B0FBF1F0F7
:101240006FF01802504306EB800003EB0010B0FB78
:10125000F1F0216800F00F002844886070BD0000A4
:10126000003801402DE9F843984617460D460446DC
:10127000089E24E0701C22D0FFF79CF8A0EB080029
:10128000B0421AD8CEB12068C168490717D5802D61
:1012900015D0402D13D00168C94309070FD4016848
:1012A0000025406800902046FFF759FF0820606441
:1012B00084F840500120BDE8F8830320FBE7206854
:1012C000006835EA000004D00020B842D2D00020E7
:1012D000F1E70120F9E7FEE70FB4054B10B503A9CC
:1012E000044A029800F028F810BC5DF814FB0000D6
:1012F0008D140008200000200907090E002804DBD7
:1013000000F1E02080F80014704700F00F0000F1B9
:10131000E02080F8141D704702E008C8121F08C1C1
:10132000002AFAD170477047002001E001C1121F66
:10133000002AFBD1704700002DE9FF4F89B09B4682
:101340000446002506E025280BD05A460B99904705
:10135000641C6D1C20780028F5D10DB02846BDE82E
:10136000F08F0027B8460122474900E0074314F8F0
:10137000013F203B02FA03F00842F7D120782E28E3
:1013800019D114F8010F47F004072A280ED06FF086
:101390002F022078A0F1300109290CD808EB880130
:1013A00002EB410100EB0108641CF2E70A98641C9F
:1013B00050F8048B0A9020780028CED0642808D0FA
:1013C000692806D075281ED05A460B9990476D1C87
:1013D00058E00A994FF00A0901C90A91002802DA77
:1013E00040422D2102E0390504D52B218DF8201033
:1013F000012103E0F90704D02021F7E78A4608AE6F
:101400000DE00021FAE70A994FF00A0901C90A9193
:10141000F7E74946FEF798FE303106F8011D00282F
:10142000F7D1ADEB060000F12009780701D44FF0A9
:101430000108C84502DDA8EB090000E00020804655
:10144000002706E008A85A46C05D0B9990476D1C1E
:101450007F1C5745F6DB04E030205A460B99904735
:101460006D1CB8F10001A8F10108F5DC05E016F8E3
:10147000010B5A460B9990476D1CB9F10001A9F177
:101480000109F4DC641C65E70928010013B50A238F
:10149000012269460248FFF7CBFC00981CBD000002
:1014A0006C000020FEF794FFFFF798FDFFF712FD98
:1014B0000D480C490C2201604FF4E13141600021DC
:1014C0008160C160C0E904128161C161FFF745FC20
:1014D00008B172B6FEE7FFF73FFD00BF00F03AF833
:1014E000FCE70000003801406C00002010B5C82067
:1014F000FEF754FEFEF75EFF0146BDE8104001A076
:10150000FFF7EABE6164632074696D653A25642063
:101510000A0D000070B50D4C02212046FEF740FF79
:101520000B4E651408B1012209E01420FEF736FEC7
:1015300002212046FEF734FF002806D1002229466A
:101540003046BDE87040FEF730BF70BD0008014076
:10155000001001400C4810B501780024012902D187
:101560000470FFF7D7FF09480178012902D1047000
:1015700000F010F806480178012904D10470BDE894
:101580001040FFF7B3BF10BD000000200100002095
:101590000200002010B5FEF70DFF0146BDE8104027
:1015A00001A0FFF799BE0000756172742074696D27
:1015B000653A2564200A0D000102020304050607AE
:1015C00008090A0B0C0D0E0F10100000000000009F
:1015D00000000102030406070809000000000102E0
:1015E000030400000416000800000020240000008E
:1015F0001813000828160008240000209404000096
:101600002813000800000000000000000000000097
:1016100000000000010000001000000000000000B9
:0816200000127A000000000036
:04000005080000ED02
:00000001FF
